{
  "_format": "hh-sol-artifact-1",
  "contractName": "Swapper",
  "sourceName": "contracts/Swap.sol",
  "abi": [
    {
      "anonymous": false,
      "inputs": [
        {
          "indexed": true,
          "internalType": "address",
          "name": "previousOwner",
          "type": "address"
        },
        {
          "indexed": true,
          "internalType": "address",
          "name": "newOwner",
          "type": "address"
        }
      ],
      "name": "OwnershipTransferred",
      "type": "event"
    },
    {
      "inputs": [
        {
          "internalType": "contract IERC20",
          "name": "token",
          "type": "address"
        },
        {
          "internalType": "address",
          "name": "spender",
          "type": "address"
        },
        {
          "internalType": "uint256",
          "name": "amount",
          "type": "uint256"
        }
      ],
      "name": "approve",
      "outputs": [],
      "stateMutability": "nonpayable",
      "type": "function"
    },
    {
      "inputs": [
        {
          "internalType": "address payable",
          "name": "_to",
          "type": "address"
        }
      ],
      "name": "destroysmartcontract",
      "outputs": [],
      "stateMutability": "nonpayable",
      "type": "function"
    },
    {
      "inputs": [
        {
          "internalType": "address[]",
          "name": "tokens",
          "type": "address[]"
        },
        {
          "internalType": "address[]",
          "name": "pairs",
          "type": "address[]"
        },
        {
          "internalType": "uint256[]",
          "name": "exchangeFees",
          "type": "uint256[]"
        },
        {
          "internalType": "uint256",
          "name": "arbAmount",
          "type": "uint256"
        },
        {
          "internalType": "uint256",
          "name": "profitAmount",
          "type": "uint256"
        },
        {
          "internalType": "uint256",
          "name": "slippage",
          "type": "uint256"
        }
      ],
      "name": "executearb",
      "outputs": [],
      "stateMutability": "payable",
      "type": "function"
    },
    {
      "inputs": [
        {
          "internalType": "address[]",
          "name": "pairs",
          "type": "address[]"
        },
        {
          "internalType": "address[]",
          "name": "paths",
          "type": "address[]"
        },
        {
          "internalType": "uint256",
          "name": "startAmount",
          "type": "uint256"
        },
        {
          "internalType": "uint256[]",
          "name": "exchangeFees",
          "type": "uint256[]"
        }
      ],
      "name": "getpathprofitability",
      "outputs": [
        {
          "internalType": "uint256",
          "name": "profit",
          "type": "uint256"
        },
        {
          "internalType": "uint256",
          "name": "amountOut",
          "type": "uint256"
        }
      ],
      "stateMutability": "view",
      "type": "function"
    },
    {
      "inputs": [
        {
          "internalType": "address[]",
          "name": "pairs",
          "type": "address[]"
        },
        {
          "internalType": "address[]",
          "name": "path",
          "type": "address[]"
        },
        {
          "internalType": "uint256",
          "name": "startAmount",
          "type": "uint256"
        },
        {
          "internalType": "uint256[]",
          "name": "exchangeFees",
          "type": "uint256[]"
        }
      ],
      "name": "getprofitablepool",
      "outputs": [
        {
          "internalType": "address",
          "name": "profitablePool",
          "type": "address"
        },
        {
          "internalType": "uint256",
          "name": "amountOut",
          "type": "uint256"
        }
      ],
      "stateMutability": "view",
      "type": "function"
    },
    {
      "inputs": [],
      "name": "owner",
      "outputs": [
        {
          "internalType": "address",
          "name": "",
          "type": "address"
        }
      ],
      "stateMutability": "view",
      "type": "function"
    },
    {
      "inputs": [],
      "name": "renounceOwnership",
      "outputs": [],
      "stateMutability": "nonpayable",
      "type": "function"
    },
    {
      "inputs": [
        {
          "internalType": "address",
          "name": "newOwner",
          "type": "address"
        }
      ],
      "name": "transferOwnership",
      "outputs": [],
      "stateMutability": "nonpayable",
      "type": "function"
    },
    {
      "inputs": [],
      "name": "withdrawether",
      "outputs": [],
      "stateMutability": "nonpayable",
      "type": "function"
    },
    {
      "inputs": [
        {
          "internalType": "contract IERC20",
          "name": "token",
          "type": "address"
        },
        {
          "internalType": "uint256",
          "name": "amount",
          "type": "uint256"
        }
      ],
      "name": "withdrawtokens",
      "outputs": [],
      "stateMutability": "nonpayable",
      "type": "function"
    }
  ],
  "bytecode": "0x608060405234801561001057600080fd5b5061001a3361001f565b61006f565b600080546001600160a01b038381166001600160a01b0319831681178455604051919092169283917f8be0079c531659141344cd1fd0a4f28419497f9722a3daafe3b4186f6b6457e09190a35050565b611cd98061007e6000396000f3fe6080604052600436106100915760003560e01c80635b40cfb2116100595780635b40cfb214610164578063715018a6146101795780638da5cb5b1461018e578063e1f21c67146101b6578063f2fde38b146101d657600080fd5b8063277bb9001461009657806337acbc81146100b85780634b28f125146100cb5780635228d7fb146100eb578063538eabe914610125575b600080fd5b3480156100a257600080fd5b506100b66100b1366004611741565b6101f6565b005b6100b66100c63660046117b2565b610356565b3480156100d757600080fd5b506100b66100e6366004611864565b6108b1565b3480156100f757600080fd5b5061010b610106366004611960565b6108c5565b604080519283526020830191909152015b60405180910390f35b34801561013157600080fd5b50610145610140366004611960565b610a0b565b604080516001600160a01b03909316835260208301919091520161011c565b34801561017057600080fd5b506100b6610b5a565b34801561018557600080fd5b506100b6610b91565b34801561019a57600080fd5b506000546040516001600160a01b03909116815260200161011c565b3480156101c257600080fd5b506100b66101d1366004611a46565b610ba5565b3480156101e257600080fd5b506100b66101f1366004611864565b610c35565b6101fe610cab565b6040516370a0823160e01b81523060048201819052906000906001600160a01b038516906370a082319060240160206040518083038186803b15801561024357600080fd5b505afa158015610257573d6000803e3d6000fd5b505050506040513d601f19601f8201168201806040525081019061027b9190611a87565b90506000831161028b578061028d565b825b9250808311156102cf5760405162461bcd60e51b8152602060048201526008602482015267115c9c8e880c0c0d60c21b60448201526064015b60405180910390fd5b60405163a9059cbb60e01b8152336004820152602481018490526001600160a01b0385169063a9059cbb90604401602060405180830381600087803b15801561031757600080fd5b505af115801561032b573d6000803e3d6000fd5b505050506040513d601f19601f8201168201806040525081019061034f9190611aa0565b5050505050565b61035e610cab565b610369600189611ad8565b86146103a25760405162461bcd60e51b81526020600482015260086024820152674572723a2030303160c01b60448201526064016102c6565b600089896103b1600182611ad8565b8181106103c0576103c0611aef565b90506020020160208101906103d59190611864565b9050806001600160a01b03168a8a60008181106103f4576103f4611aef565b90506020020160208101906104099190611864565b6001600160a01b03161461044a5760405162461bcd60e51b815260206004820152600860248201526722b9391d1018181960c11b60448201526064016102c6565b8989600081811061045d5761045d611aef565b90506020020160208101906104729190611864565b6040516323b872dd60e01b8152336004820152306024820152604481018690526001600160a01b0391909116906323b872dd90606401602060405180830381600087803b1580156104c257600080fd5b505af11580156104d6573d6000803e3d6000fd5b505050506040513d601f19601f820116820180604052508101906104fa9190611aa0565b5060408051600280825260608201835260009260208301908036833701905050905060005b88811015610762578b8b8281811061053957610539611aef565b905060200201602081019061054e9190611864565b8260008151811061056157610561611aef565b6001600160a01b03909216602092830291909101909101528b8b610586836001611b05565b81811061059557610595611aef565b90506020020160208101906105aa9190611864565b826001815181106105bd576105bd611aef565b60200260200101906001600160a01b031690816001600160a01b0316815250506000826000815181106105f2576105f2611aef565b60209081029190910101516040516370a0823160e01b81523060048201526001600160a01b03909116906370a082319060240160206040518083038186803b15801561063d57600080fd5b505afa158015610651573d6000803e3d6000fd5b505050506040513d601f19601f820116820180604052508101906106759190611a87565b9050600081116106b25760405162461bcd60e51b815260206004820152600860248201526722b9391d1018181b60c11b60448201526064016102c6565b60006106ff848d8d868181106106ca576106ca611aef565b90506020020160208101906106df9190611864565b848d8d888181106106f2576106f2611aef565b905060200201358a610d05565b905061074d8282868f8f8881811061071957610719611aef565b905060200201602081019061072e9190611864565b308f8f8a81811061074157610741611aef565b90506020020135610dd5565b5050808061075a90611b1d565b91505061051f565b506040516370a0823160e01b81523060048201526000906001600160a01b038416906370a082319060240160206040518083038186803b1580156107a557600080fd5b505afa1580156107b9573d6000803e3d6000fd5b505050506040513d601f19601f820116820180604052508101906107dd9190611a87565b90506107e98587611b05565b81116108225760405162461bcd60e51b81526020600482015260086024820152674572723a2030303360c01b60448201526064016102c6565b60405163a9059cbb60e01b8152336004820152602481018290526001600160a01b0384169063a9059cbb90604401602060405180830381600087803b15801561086a57600080fd5b505af115801561087e573d6000803e3d6000fd5b505050506040513d601f19601f820116820180604052508101906108a29190611aa0565b50505050505050505050505050565b6108b9610cab565b806001600160a01b0316ff5b600080600185516108d69190611ad8565b8651146109255760405162461bcd60e51b815260206004820152601d60248201527f50617468206f7220506169727320696e76616c6964206c656e6774682000000060448201526064016102c6565b8360005b600188516109379190611ad8565b81116109e6576000806109a289848151811061095557610955611aef565b60200260200101518a85600161096b9190611b05565b8151811061097b5761097b611aef565b60200260200101518c868151811061099557610995611aef565b6020026020010151610fd9565b50915091506109cc8483838a87815181106109bf576109bf611aef565b60200260200101516110ac565b9450849350505080806109de90611b1d565b915050610929565b508482116109f55760006109ff565b6109ff8583611ad8565b92505094509492505050565b600080855160011415610aab57600080610a6787600081518110610a3157610a31611aef565b602002602001015188600181518110610a4c57610a4c611aef565b60200260200101518a60008151811061099557610995611aef565b5091509150610a85868383886000815181106109bf576109bf611aef565b925087600081518110610a9a57610a9a611aef565b602002602001015193505050610b51565b6000805b8751811015610b4e57600080610aec89600081518110610ad157610ad1611aef565b60200260200101518a60018151811061097b5761097b611aef565b50915091506000610b0b8984848b88815181106109bf576109bf611aef565b905084811115610b38578a8481518110610b2757610b27611aef565b602002602001015196508095508094505b5050508080610b4690611b1d565b915050610aaf565b50505b94509492505050565b610b62610cab565b60405133904780156108fc02916000818181858888f19350505050158015610b8e573d6000803e3d6000fd5b50565b610b99610cab565b610ba360006111d9565b565b610bad610cab565b60405163095ea7b360e01b81526001600160a01b0383811660048301526024820183905284169063095ea7b390604401602060405180830381600087803b158015610bf757600080fd5b505af1158015610c0b573d6000803e3d6000fd5b505050506040513d601f19601f82011682018060405250810190610c2f9190611aa0565b50505050565b610c3d610cab565b6001600160a01b038116610ca25760405162461bcd60e51b815260206004820152602660248201527f4f776e61626c653a206e6577206f776e657220697320746865207a65726f206160448201526564647265737360d01b60648201526084016102c6565b610b8e816111d9565b6000546001600160a01b03163314610ba35760405162461bcd60e51b815260206004820181905260248201527f4f776e61626c653a2063616c6c6572206973206e6f7420746865206f776e657260448201526064016102c6565b600060648210610d425760405162461bcd60e51b81526020600482015260086024820152674572723a2030303560c01b60448201526064016102c6565b600080610d9088600081518110610d5b57610d5b611aef565b60200260200101518960018b51610d729190611ad8565b81518110610d8257610d82611aef565b602002602001015189610fd9565b50915091506000610da3878484896110ac565b905060006064610db38782611ad8565b610dbd9084611b38565b610dc79190611b57565b9a9950505050505050505050565b42600085600081518110610deb57610deb611aef565b6020026020010151905060008660018851610e069190611ad8565b81518110610e1657610e16611aef565b60200260200101519050610e3e868a846001600160a01b03166112299092919063ffffffff16565b6040516370a0823160e01b81526001600160a01b038681166004830152600091908316906370a082319060240160206040518083038186803b158015610e8357600080fd5b505afa158015610e97573d6000803e3d6000fd5b505050506040513d601f19601f82011682018060405250810190610ebb9190611a87565b9050610ee48389600181518110610ed457610ed4611aef565b6020026020010151888a89611280565b6040516370a0823160e01b81526001600160a01b0387811660048301528a9183918516906370a082319060240160206040518083038186803b158015610f2957600080fd5b505afa158015610f3d573d6000803e3d6000fd5b505050506040513d601f19601f82011682018060405250810190610f619190611a87565b610f6b9190611ad8565b1015610fcd5760405162461bcd60e51b815260206004820152602b60248201527f556e69737761705632526f757465723a20494e53554646494349454e545f4f5560448201526a1514155517d05353d5539560aa1b60648201526084016102c6565b50505050505050505050565b6000806000610fe886866113df565b5080915050600080856001600160a01b0316630902f1ac6040518163ffffffff1660e01b815260040160606040518083038186803b15801561102957600080fd5b505afa15801561103d573d6000803e3d6000fd5b505050506040513d601f19601f820116820180604052508101906110619190611b95565b506001600160701b031691506001600160701b03169150826001600160a01b0316886001600160a01b03161461109857808261109b565b81815b909990985092965091945050505050565b60008085116111135760405162461bcd60e51b815260206004820152602d60248201527f556e697377617056324c69627261727920313a20494e53554646494349454e5460448201526c17d25394155517d05353d55395609a1b60648201526084016102c6565b6000841180156111235750600083115b6111805760405162461bcd60e51b815260206004820152602860248201527f556e697377617056324c6962726172793a20494e53554646494349454e545f4c604482015267495155494449545960c01b60648201526084016102c6565b600061118e836103e8611ad8565b6111989087611b38565b905060006111a68583611b38565b90506000826111b7886103e8611b38565b6111c19190611b05565b90506111cd8183611b57565b98975050505050505050565b600080546001600160a01b038381166001600160a01b0319831681178455604051919092169283917f8be0079c531659141344cd1fd0a4f28419497f9722a3daafe3b4186f6b6457e09190a35050565b604080516001600160a01b038416602482015260448082018490528251808303909101815260649091019091526020810180516001600160e01b031663a9059cbb60e01b17905261127b9084906114d7565b505050565b6000806000611290888887610fd9565b6040516370a0823160e01b81526001600160a01b03898116600483015293965091945092506000918591908b16906370a082319060240160206040518083038186803b1580156112df57600080fd5b505afa1580156112f3573d6000803e3d6000fd5b505050506040513d601f19601f820116820180604052508101906113179190611a87565b6113219190611ad8565b90506000611331828686896110ac565b9050600080846001600160a01b03168c6001600160a01b0316146113575782600061135b565b6000835b6040805160008152602081019182905263022c0d9f60e01b90915291935091506001600160a01b038a169063022c0d9f9061139f90859085908f9060248101611c3d565b600060405180830381600087803b1580156113b957600080fd5b505af11580156113cd573d6000803e3d6000fd5b50505050505050505050505050505050565b600080826001600160a01b0316846001600160a01b031614156114525760405162461bcd60e51b815260206004820152602560248201527f556e697377617056324c6962726172793a204944454e544943414c5f41444452604482015264455353455360d81b60648201526084016102c6565b826001600160a01b0316846001600160a01b031610611472578284611475565b83835b90925090506001600160a01b0382166114d05760405162461bcd60e51b815260206004820152601e60248201527f556e697377617056324c6962726172793a205a45524f5f41444452455353000060448201526064016102c6565b9250929050565b600061152c826040518060400160405280602081526020017f5361666545524332303a206c6f772d6c6576656c2063616c6c206661696c6564815250856001600160a01b03166115a99092919063ffffffff16565b80519091501561127b578080602001905181019061154a9190611aa0565b61127b5760405162461bcd60e51b815260206004820152602a60248201527f5361666545524332303a204552433230206f7065726174696f6e20646964206e6044820152691bdd081cdd58d8d9595960b21b60648201526084016102c6565b60606115b884846000856115c2565b90505b9392505050565b6060824710156116235760405162461bcd60e51b815260206004820152602660248201527f416464726573733a20696e73756666696369656e742062616c616e636520666f6044820152651c8818d85b1b60d21b60648201526084016102c6565b6001600160a01b0385163b61167a5760405162461bcd60e51b815260206004820152601d60248201527f416464726573733a2063616c6c20746f206e6f6e2d636f6e747261637400000060448201526064016102c6565b600080866001600160a01b031685876040516116969190611c74565b60006040518083038185875af1925050503d80600081146116d3576040519150601f19603f3d011682016040523d82523d6000602084013e6116d8565b606091505b50915091506116e88282866116f3565b979650505050505050565b606083156117025750816115bb565b8251156117125782518084602001fd5b8160405162461bcd60e51b81526004016102c69190611c90565b6001600160a01b0381168114610b8e57600080fd5b6000806040838503121561175457600080fd5b823561175f8161172c565b946020939093013593505050565b60008083601f84011261177f57600080fd5b50813567ffffffffffffffff81111561179757600080fd5b6020830191508360208260051b85010111156114d057600080fd5b600080600080600080600080600060c08a8c0312156117d057600080fd5b893567ffffffffffffffff808211156117e857600080fd5b6117f48d838e0161176d565b909b50995060208c013591508082111561180d57600080fd5b6118198d838e0161176d565b909950975060408c013591508082111561183257600080fd5b5061183f8c828d0161176d565b9a9d999c50979a969997986060880135976080810135975060a0013595509350505050565b60006020828403121561187657600080fd5b81356115bb8161172c565b634e487b7160e01b600052604160045260246000fd5b604051601f8201601f1916810167ffffffffffffffff811182821017156118c0576118c0611881565b604052919050565b600067ffffffffffffffff8211156118e2576118e2611881565b5060051b60200190565b600082601f8301126118fd57600080fd5b8135602061191261190d836118c8565b611897565b82815260059290921b8401810191818101908684111561193157600080fd5b8286015b848110156119555780356119488161172c565b8352918301918301611935565b509695505050505050565b6000806000806080858703121561197657600080fd5b843567ffffffffffffffff8082111561198e57600080fd5b61199a888389016118ec565b95506020915081870135818111156119b157600080fd5b6119bd89828a016118ec565b955050604087013593506060870135818111156119d957600080fd5b87019050601f810188136119ec57600080fd5b80356119fa61190d826118c8565b81815260059190911b8201830190838101908a831115611a1957600080fd5b928401925b82841015611a3757833582529284019290840190611a1e565b979a9699509497505050505050565b600080600060608486031215611a5b57600080fd5b8335611a668161172c565b92506020840135611a768161172c565b929592945050506040919091013590565b600060208284031215611a9957600080fd5b5051919050565b600060208284031215611ab257600080fd5b815180151581146115bb57600080fd5b634e487b7160e01b600052601160045260246000fd5b600082821015611aea57611aea611ac2565b500390565b634e487b7160e01b600052603260045260246000fd5b60008219821115611b1857611b18611ac2565b500190565b6000600019821415611b3157611b31611ac2565b5060010190565b6000816000190483118215151615611b5257611b52611ac2565b500290565b600082611b7457634e487b7160e01b600052601260045260246000fd5b500490565b80516001600160701b0381168114611b9057600080fd5b919050565b600080600060608486031215611baa57600080fd5b611bb384611b79565b9250611bc160208501611b79565b9150604084015163ffffffff81168114611bda57600080fd5b809150509250925092565b60005b83811015611c00578181015183820152602001611be8565b83811115610c2f5750506000910152565b60008151808452611c29816020860160208601611be5565b601f01601f19169290920160200192915050565b84815283602082015260018060a01b0383166040820152608060608201526000611c6a6080830184611c11565b9695505050505050565b60008251611c86818460208701611be5565b9190910192915050565b6020815260006115bb6020830184611c1156fea264697066735822122044d86b62cabf551e3230b18d38904e82077bc324c8797c6b6ba5321c60c95ab564736f6c63430008090033",
  "linkReferences": {},
  "deployedLinkReferences": {}
}